:020000040800F2
:100000007018002059190008E54900084519000832
:1000100045190008451900084519000800000000AE
:100020000000000000000000000000008D19000822
:100030004519000800000000E11A0008B925000871
:100040004D1B00084D1B00084D1B00084D1B0008F0
:100050004D1B00084D1B00084D1B00084D1B0008E0
:100060004D1B00084D1B00084D1B00084D1B0008D0
:100070004D1B00084D1B00084D1B00084D1B0008C0
:100080004D1B00084D1B00084D1B00084D1B0008B0
:100090004D1B00084D1B00084D1B00084D1B0008A0
:1000A0004D1B00084D1B00084D1B00084D1B000890
:1000B0004D1B00084D1B00084D1B00084D1B000880
:1000C0004D1B00084D1B00084D1B00084D1B000870
:1000D0004D1B00084D1B00084D1B00084D1B000860
:0400E0004D1B0008AC
:1000E40053B94AB9002908BF00281CBF4FF0FF319B
:1000F4004FF0FF3000F00CB8ADF1080C6DE904CE00
:1001040000F010F8DDF804E0DDE9022304B07047E4
:10011400704700BF034613F8012B002AFBD1181ABD
:10012400013870472DE9F0478C468E461546044643
:100134001946089E002B40F0D080724547D9B2FA88
:1001440082F74FB1C7F120030EFA07FC20FA03F33C
:10015400BD4043EA0C0CBC404FEA154EBCFBFEF814
:10016400A8B20EFB18CC08FB00F9230C43EA0C439D
:10017400994528D9EB1808F1FF3204D2994502D9E0
:10018400A8F102022B44A3EB0903B3FBFEFC0EFB14
:100194001C330CFB00F0A4B244EA0344A04214D97B
:1001A4002C190CF1FF3304D2A04202D9ACF10203A2
:1001B4002C44241A43EA02401EB10023FC4034605C
:1001C4007360BDE8F0874246DDE76346F1E7002A45
:1001D40079D0B2FA82F3002B3FD01946C1F1200343
:1001E40002FA01F52EFA03F20EFA01FE20FA03F3E5
:1001F40043EA0E034FEA154EB2FBFEFC00FA01F48B
:10020400AFB20EFB1C200CFB07F81A0C42EA0042AA
:1002140090455AD9AA180CF1FF3004D2904502D95E
:10022400ACF102002A44A2EB0802B2FBFEFC0EFB76
:100234001C220CFB07F79BB243EA02439F4246D9B8
:10024400EB180CF1FF3204D29F4202D9ACF1020246
:100254002B44DB1B42EA004202E0AEEB0203012224
:100264004FEA154EB3FBFEFCAFB20EFB1C330CFB86
:1002740007F8200C40EA034398452AD9EB180CF1FF
:10028400FF3004D2984502D9ACF102002B44A3EB11
:100294000803B3FBFEFC0EFB1C330CFB07F7A4B2F4
:1002A40044EA0344A74216D92C190CF1FF3304D2B3
:1002B400A74202D9ACF102032C44E41B43EA0040F8
:1002C4000F46114678E71F2188E76046ABE7624690
:1002D400BFE76046DBE76346EFE7734506D916B927
:1002E400002108466DE7C6E9000EF9E7B3FA83F783
:1002F40087B9734501D3824207D8841A6EEB03038E
:1003040001209C461EB900215BE73846FAE7C6E99E
:10031400004CF8E7C7F1200CBB4022FA0CF51D4352
:100324004FEA15492EFA0CF3B3FBF9F80EFA07FE5F
:1003340020FA0CF141EA0E0100FA07F41FFA85FED7
:1003440009FB183008FB0EFA0B0C43EA00439A45EC
:1003540002FA07F240D9EB1808F1FF3004D29A45AB
:1003640002D9A8F102002B44A3EB0A03B3FBF9F86A
:1003740009FB183308FB0EFE89B241EA03418E459E
:100384002CD9691808F1FF3304D28E4502D9A8F19B
:100394000203294443EA0040A0FB0298A1EB0E01AA
:1003A4004145CE46434602D306D14C4504D2B9EB6F
:1003B400020E68EB05030138002EA4D0B4EB0E0244
:1003C40061EB030101FA0CFC22FA07F34CEA030384
:1003D400F940C6E9003196E74046C5E74346D9E708
:1003E4002DE9F04383B000AF224E304604F09AFD6D
:1003F4000546002839D03269B1681368304643F4A1
:10040400005313600B681C4A0D21984700282CDB0D
:100414001A4CDFF86C80B3684FF4005130465B69C6
:100424009847002821DB85F0010515F0FF05E94612
:1004340088B00CBF234643466A461249CDE90513EA
:100444004FF40073ADF81C300F4B7B6042F8103F43
:1004540000234FF4E6510D4800F014FDCD46002171
:1004640042F2107004F04BFED5E700200C37BD4675
:10047400BDE8F0837C530008010006006D580008B5
:100484006A58000871580008030000011456000857
:1004940008B5024803F06AFE002008BD875800082A
:1004A4000E4A0346904202D30D4A904211D30D4A9C
:1004B40022B1934202D30C4A93420AD30B4A52B15B
:1004C4000B48834234BF01200020934238BF0020F0
:1004D4007047012070471046704700BF7C520008E7
:1004E400906100080000000000000000000000000F
:1004F400000000002DE9F04F9BB000AF04468B468E
:10050400D7F890A0FA637B6349B90378467880787A
:1005140000EB830020445E4522D8A0EB040B0AF0D4
:10052400010394F80280FB62E378B8F1000F0CBF7A
:100534004FF000090AF001093B6313B11AF0020FEE
:1005440017D1B9F1000F14D1FB6B1BB159462046EA
:100554007A6B98475D4628466C37BD46BDE8F08FF8
:10056400451C2846FFF7D6FD013028440BF1010B4A
:10057400D1E7CAF3C003FB612378BB629B00BB6174
:1005840063683B62BB6A04EB8301FB6B002B7DD188
:100594005D468844B9F1000F1DD08B469946A84E9C
:1005A4001BF8013B54F82300002808BF3046FFF72E
:1005B400B1FDD7F8943001304BB1D7F898304B45A2
:1005C40082BFD7F8943023F8190009F10109C34513
:1005D4000544E5D1D8461AF0050F0CBF4FF0020BC5
:1005E4004FF0010B00260AF00203FB633B6B9E42B3
:1005F400B1D298F8013008F1020854F823A050460B
:10060400FFF74EFFFA69034602B3B86318F8021CF9
:10061400386A03F08CFDBB6BC0B1EA468AB06A4607
:10062400884B05933B6ACDE906314FF40073ADF86E
:100634002030854B42F8103F00234FF41251834879
:1006440000F020FCD546023D0136CFE723B1FB6A1A
:100654002BB9A5EB0B05F7E7FB6B002BF4D078481F
:10066400BAF1000F18BF5046FFF754FDD7F8943085
:1006740053B1D7F8983099453FBFD7F89420431C1D
:1006840022F8193009F101090544DDE7B9F1000F39
:100694006DD04346102B28BF10230026BB6397F868
:1006A400389007F14800BA6B796204F05FFD796A0B
:1006B40000227A620AF0020201EB08033A610AF0AE
:1006C40004027B61FA6002337A6A396B8A4267D327
:1006D4006378F96A1AF0020F7B624B4418BF002258
:1006E400DBB208BF7208002940F0A8801AF0040F9A
:1006F40014BF314600216370A170E27020467A6B0A
:10070400B969FB6B9847051EFFF625AFBB6A3146F6
:1007140023707B6A7A6B63703B6B84F80280E370AE
:1007240007F15800FB6B9847061EC0F2C3803A6B72
:10073400BB69386B03EB4203ABEB0301D7E90D2331
:10074400C91A7B6903EB4000FB6B98470028C0F291
:10075400B3804FF000082E44351807F1480AC84505
:1007640076D300217A6B0846FB6B9847F3E6B8F121
:10077400000F0CD01AF0040F0ED04346102B28BFE4
:100784001023BB6397F8386007F158008BE746469F
:10079400C146C7F838808BE74E46C7F8388087E7EC
:1007A40013F8015C13F8021C54F82500BB60FFF732
:1007B40077FE0246F869BB6838B1386AC7E9013286
:1007C40003F0B5FCD7E90132F0B912B3FA6A72B199
:1007D400B9F10F0F18D809F1280107F1400009F108
:1007E4000102014401F8205C5FFA82F90CE0FA6826
:1007F40052B10F2E08D806F1280107F14000721CEF
:100804000E1806F8105CD6B27A6A023301327A62A4
:100814005AE73A69002ADBD10F2EF5D8721CD2B2FE
:1008240006F1280007F1400C283260440236624485
:1008340000F8101CF6B202F8105CE5E700215AE754
:10084400C3580008CA58000804000001EC55000809
:1008540018F80A3054F823B087F84730D7F89430A2
:1008640033B3D7F89830984522D2D7F8943033F878
:10087400186001217A6BFB6B07F147009847002849
:100884001ADB0E4B0544BBF1000F08BF9B4626B98B
:100894005846FFF73FFC461CB6B2314658467A6BC1
:1008A400FB6B9847002807DB054408F1010856E76D
:1008B4000026DEE735464EE605464CE6C3580008FA
:1008C400014B1860704700BF00000020074B002058
:1008D4005A6822F001025A605A6822F002025A60F1
:1008E4005A6822F004025A60704700BF002004E0F6
:1008F40008B5416805480C3183681B681BB19847EB
:1009040000EAE07008BD6FF05700F9E70C530008E7
:10091400042810B502D90024204610BD044B53F816
:100924002040204604F0FEFA0028F5D1F3E700BF8A
:10093400C8560008044A136843F010031360034BBD
:10094400034A1A60704700BF0020024044000020A0
:1009540000127A002DE9F047044607464FF00109DA
:10096400DFF84C8094FAA4F5B5FA85F509FA05F395
:100974002E0108EB05156FEA030A24EA03042B7B16
:1009840063B158F806301B696BB946447368042296
:100994002846196807EA0A0703F0E5FE002CE1D1AE
:1009A4003846BDE8F087284698470028F6D1ECE79A
:1009B4005456000810B5002288B00E490E4804F0C1
:1009C400C4FB002200230024CDE906230E234FF4A8
:1009D4004072CDE90334CDE90144084B0849009441
:1009E400084802F059F90849064804F0CBFA2046B1
:1009F40008B010BD110A000848050020310D000898
:100A040070080020D0000020F6590008014802F0C8
:100A14007DB800BFBC0000202DE9F0478046204887
:100A24000F4603F078FE0646002832D000252846FB
:100A3400BDE8F087237B83B12368DB680BB12046D4
:100A44009847636883F8069023681B69CBB9636889
:100A540004222046196803F086FE013610345445FA
:100A6400E8D3B8F1000FE2D0002DDFD02846FFF71D
:100A740071FF0546002FF7D00021642004F03FFBEE
:100A8400F2E7204698470028E1D009FA06F31D430F
:100A9400E3E705464FF00109024CDFF80CA0DEE75E
:100AA400600700205456000864560008014B53F8B0
:100AB40020007047F056000808B5034608462BB1DD
:100AC400044A136000F050FC002008BD6FF01500CC
:100AD400FBE700BF0400002010B5044C237813B9D1
:100AE400034802F013F80123237010BD64080020AA
:100AF400BC00002010B504460B4803F00CFE5CB1AA
:100B0400BFF35B8F094B53E8001F013943E8001220
:100B1400002AF8D1BFF35B8F054802F025FEBDE83B
:100B24001040044801F0F2BF580700205C07002081
:100B340048050020BC0000200022BFF35B8F054B5A
:100B440053E8000F43E800210029F9D1BFF35B8F7C
:100B5400704700BF5807002070B5FFF7EDFF05464A
:100B6400074C084EB44200D370BD63685B792BB167
:100B740023685B6813B12946204698471034F1E78F
:100B8400545600086456000810B5044C0449204625
:100B940003F0FAFB034B1C6010BD00BF8000002073
:100BA400DC5600085007002000230D4A10B51370CE
:100BB4000C4A4FF47A7113600B4A0C481360FFF728
:100BC4007BFFFFF7E1FF0A4B0A4918468B4200D32B
:100BD40010BD1A1A5C681211013222711033F5E744
:100BE40065080020580700205C07002035470008EE
:100BF40054560008645600080146002200230148A8
:100C040003F0E3BB80000020014803F07ABC00BF7E
:100C140080000020024B0146186803F0CDBC00BFE1
:100C240050070020014803F002BD00BF80000020EF
:100C340070B5274B1B78002B47D0FFF7E5FF044620
:100C440000283FD1234B244D1B68002B12DD04F0F8
:100C54007AFA0A220023FFF743FAD5E90032C01AD0
:100C640040F2E93361EB0201984271F1000101D3D2
:100C7400FFF772FFD5E9003213F57A7342F10002EF
:100C8400C5E900320CB3BDE87040FFF7CBBF6B6819
:100C94005B7923B12B68214628461B689847103599
:100CA400B542F4D32046FFF7B5FFBFF35B8F0B4B80
:100CB40053E8001F013943E80012002AF8D1BFF3BA
:100CC4005B8FBFE7064D074EEAE7002070BD00BF0B
:100CD4006408002058070020400500205C0700201D
:100CE400545600086456000870B50D4D297861B952
:100CF4000120FFF791FE0B4C0B4EB44206D3FFF7D5
:100D040097FF0028FBD101232B7070BD63685B79CA
:100D14001BB1236820469B6898471034EDE700BF59
:100D240065080020545600086456000800212DE987
:100D3400F8430846FFF770FE044648B34FF4FA78C8
:100D44004FF0000900F012FF1A4B1B4A1B581360A6
:100D540033B11A4B1B68092B02DD194801F0D6FE8A
:100D64000025184F44B12046FFF7F4FD044618B996
:100D74004FF0FF384FF0FF39FFF75AFF064628B906
:100D8400B5B90F4842464B4601F0F4FE3546E9E753
:100D94004FF0FF384FF0FF39D4E72B689B691BB144
:100DA40000222846114698471035BD42F5D3E8E79E
:100DB400054DFAE708000000540700205C070020F6
:100DC400BC000020645600085456000813B51848A7
:100DD40003F0A1FC174B1B7873B1EFF311841023BC
:100DE40083F31288BFF36F8FFFF722FF84F3118818
:100DF400BFF36F8F02B010BD0F4B1B68002BF9D0EF
:100E040050B9002200230D48CDE9002342F21072AC
:100E1400002302F083FCEDE70928EBD1074802F038
:100E2400A3FC074802B0BDE8104001F06FBE00BF4C
:100E34005C070020650800205407002048050020B6
:100E4400BC00002010B5064B04461B689847214699
:100E5400A060044803F036FBBDE81040FFF7B6BFBE
:100E64000400002080000020044A054B9B1AB1EBCB
:100E7400D30F34BF52F8310000207047EC550008FE
:100E8400545600082DE9F04F8FB0C1F34A2604AF41
:100E94000D469046B8607B600C0D002E61D04FF07B
:100EA40000090A234FF0040B07F1140AFE60C7E996
:100EB4000799C7F824900093CDF808B0CDF804A0A2
:100EC40007F11C034A464046F968FFF713FBB0F5E7
:100ED400006F03461CD36C468AB0D8F8041004ABE8
:100EE40024481A46C3E9050140F2FF71D9614FF461
:100EF40000711984204B42F8103F4FF412514B46B5
:100F04001E48FFF7BFFFA5462C37BD46BDE8F08F4E
:100F1400C0F30A0604F11700184420F00700800803
:100F24003B60FFF769FE66F35325044680B13B68D6
:100F340000F11001C7E908390A23F961CDE901ABD1
:100F4400009340460E4AF96807F11C03FFF7D2FAF2
:100F540066F353252A4620467B68B96803F023FCD0
:100F6400D2E704F1170020F007008008FFF744FEE1
:100F74000446EDE70B5A000804000001FC55000884
:100F84007D4700082DE9F04F87B00546DDE9106B79
:100F9400DDE9127A884614469946BFB110213B46D2
:100FA4005A460020CDF800A0CDF814A002F0E6FEC9
:100FB400B0F5006F01460BD340F2FF730221184ACB
:100FC400184807B0BDE8F04F03F046BC3946384630
:100FD40004F0070305F00704E40044EA831444EA38
:100FE400402444EA065406F11700084420F00700A0
:100FF40080080391FFF700FE054640B13FB13B4630
:101004005A460399CDF800A0103002F0B7FE4B46C3
:1010140022464146284607B0BDE8F04F03F0C3BB63
:101024004A5A0008FC550008406820B1034BC01A16
:1010340040F3CF0070474FF0FF307047EC55000885
:101044000EB403B503AB53F8042B014604480193D3
:1010540000F092FD02B05DF804EB03B0704700BFEE
:10106400A5480008CA0605D48B064CBF02490349AB
:10107400FFF7E6BF704700BF835A0008825A000892
:101084002DE9F04F8BB099469DF85880179B044684
:1010940007930D46DDE918A31A9F06920593B8F14C
:1010A400000F00F0BF80844B07F0020B13F80830E8
:1010B400089307F48073099303F053FB0246002856
:1010C4007DD020467D49FFF7BBFF0646BBF1000FEC
:1010D40008D017F0440F74D12A4620467849FFF708
:1010E400AFFF064407F0010353B1764B204653F893
:1010F4002820754B7549002A08BF1A46FFF7A0FF40
:1011040007F48073002B07F0080318BF4FF00009A1
:10111400002B00F082806E4B204653F828206D4946
:10112400FFF78EFF0546069B2BB11A4620466A49F7
:10113400FFF786FF0544B9F1000F0DD0089B002B83
:101144006ED06649664BB8F1040F18BF19464A467B
:101154002046FFF775FF054462483544079B1BB1E1
:101164002246614902F0B2FF059B002B00F09080FB
:10117400DDF814903946B9F1100F204628BF4FF01E
:1011840010090026FFF76EFFB54252DC00263346F5
:1011940020461AF803205549FFF752FF0136102E56
:1011A4004DD0710703D120465149FFF749FF4E4501
:1011B4003346EDD320464F49FFF742FFEEE706469C
:1011C40084E74D4B186800288BD04C4B4FF47A7B46
:1011D4001B684FF03C0CB5FBF3F5B5FBF0F14FF495
:1011E400616300FB11550BFB05F5B1FBF3F2B5FB95
:1011F400F0FE03FB121100FB1E55B1FBFCF30BFBCD
:1012040005F5B5FBF0F50CFB131120460091CDE973
:1012140001E53B49FFF714FF63E707F0080582E7A0
:101224002F4994E7B9F1010F45460CBF2D483548C5
:1012340094E720462E49FFF703FF0136A4E7002672
:1012440020463149FFF7FCFE33461AF803202046B6
:10125400A2F120035F2B28BF2E222C49FFF7F0FEBA
:101264000136102E0DD0720703D120462049FFF716
:10127400E7FEB1453346E8D820461D49FFF7E0FEB6
:10128400EEE7059BCA44B3EB090305937FF470AF03
:10129400B8F1000F0AD0FB0704D520460A4A0B49CF
:1012A400FFF7CEFE39462046FFF7DCFE20460BB0A2
:1012B400BDE8F04F03F0E8BA58610008935A0008FB
:1012C400975A000800570008855A00087C580008FF
:1012D40014570008BD5A0008C35A00088A5A000867
:1012E4008E5A0008A54800087D1B0008C75A00084C
:1012F400CF5A0008CD5A0008680700206407002070
:10130400A15A0008DB480008D15A0008D35A000843
:1013140042F20F7373B58B4228BF0B46056804462F
:10132400052168460D4A02F04FFA064663682846CE
:101334000B225B680A4903F099FA636832466946EE
:1013440028465B6803F092FA63681B2228465B68B0
:10135400044903F08BFA02B070BD00BFBB5B000808
:101364004C6100083061000800210123064A9042C4
:1013740006D8064A01B901231360054B186070476B
:10138400012140085B00F2E740420F00640700209F
:1013940068070020F8B50D460446064F4618B442C7
:1013A40001D12846F8BD14F8011BBB6801485B68ED
:1013B4009847F4E72454000880B505460E461746BE
:1013C400984601F001FF034600F0D0FB0446DFF825
:1013D4001890424649F8003039463046A84754F838
:1013E400090000F065FB00BF0800000008B50348D1
:1013F400034A0021121A03F0EBFA08BDD0000020C2
:101404006C080020074808B5074A0849121A03F077
:10141400E1FABDE808400648064A0749121A03F0F3
:10142400D9BA00BF00000020CC0000209061000861
:101434000000002000000020906100082DE9F04722
:1014440006460C4600AF002935D006C9E9468AB0E5
:101454006D46A3684FF0050AE8461F48CDE9072307
:10146400CDE9050148F810AF002342464FF421515D
:101474001A48FFF707FDD4E90312CD466369AD4668
:101484001748C5E90723C5E90501C5F810A00023DD
:1014940042464FF421511148FFF7F4FCCD46E3696D
:1014A4000121104A0D4803F0D7F9A36901210E4A1E
:1014B4000A4803F0D1F9012E07D1EFF305830B4A53
:1014C40031460648103B03F0C7F92146304601F087
:1014D40081F9BD46BDE8F087105B00081C56000882
:1014E4003F5B00086E5B00087D5B0008AB5B000897
:1014F40030BFFFF7FDBF00BF2DE9F04105460B4E9D
:10150400DFF82C80324606EB0807CC1B204609493D
:1015140003F02CFEA01942460021083C03F034FEDF
:101524006C6607F10800BDE8F08100BF0000000010
:10153400040000006456000810B5204C20492148DE
:1015440003F055FAA36A990136D51E481E4903F0E3
:101554004EFA1E20A36ADA0104D51A481B4903F087
:1015640046FA1F20154CA36A1B0304D515481849D5
:1015740003F03DFA2120A36A590304D51148154903
:1015840003F035FA22200D4CA36A9A0304D50D48C2
:10159400114903F02CFA2320A36ADB0304D509487C
:1015A4000E4903F024FA2420044A936A6FEA0343A1
:1015B4006FEA1343936210BD1D20CBE700ED00E0FA
:1015C400BE5B00081C560008D65B0008E95B0008F7
:1015D400035C0008215C0008465C0008605C0008AD
:1015E40070B506460D46214C2149224803F0FFF907
:1015F400A36AD90638D51F481F4903F0F8F911200A
:10160400A36A1A0704D51B481C4903F0F0F91220F9
:10161400164CA36A9B0712D51949164803F0E7F93B
:10162400636BA26A110609D50121164A114803F019
:1016340013F91EB1A36A23F08003A36213200B4C99
:10164400A36ADA0704D50B480F4903F0D0F9142034
:10165400A36A064ADB0658BFA36A936A43F0FF03F2
:10166400936200232B7070BD1020C9E700ED00E0E9
:101674008B5C00081C560008A15C0008D45C0008C0
:10168400E75C0008FF5C0008155D000870B50646BD
:101694000D46234C2349244803F0A9F9A36AD9042D
:1016A4003CD52148214903F0A2F91720A36A1A0561
:1016B40004D51D481E4903F09AF91820184CA36A52
:1016C4009B0512D51B49184803F091F9A36BA26A34
:1016D400110409D50121184A134803F0BDF81EB1BD
:1016E400A36A23F40043A36219200D4CA36A5A058C
:1016F40004D50D48114903F07AF91A20A36ADB05D1
:1017040004D509480E4903F072F91B20044A936A70
:1017140043F47F43936200232B7070BD1620C5E70A
:1017240000ED00E0345D00081C5600084A5D000826
:10173400D45C00085B5D0008745D0008895D0008E6
:10174400A45D0008F0B58BB0694B044658680025C9
:1017540000AFC0F3080385F31188BFF36F8F02F065
:101764007F46B6F17F4F07D102F00C06082E0ED14A
:101774006049614803F03BF960495F4803F037F979
:1017840000210846FFF75AFE2C37BD46F0BD160768
:101794004CBF0C460125002CEED00022FA71DA1E53
:1017A400092A00F28580DFE802F0057B7E778383D7
:1017B400838383815249504803F019F900234C4E26
:1017C400FB71F36A9A0705D54E494B4803F00FF9AC
:1017D40000232DE0F36A002B01DA4B49F5E7F36AA5
:1017E4005B00F5D54949444803F001F97369A269DE
:1017F40043F480737361BFF34F8FBFF36F8F32F87D
:10180400023C726922F480727261BFF34F8FBFF39E
:101814006F8F03F47F42B2F55F4F27D1DBB2022B07
:1018240024D1236801213A4A334803F015F8236888
:10183400FA79002AA8D107F1080604F1200C3246EF
:1018440020686168083403C264451646F7D17A6A91
:10185400002D4AD0C2F3080121B96FEA52226FEA7F
:1018640042227A62184607F108018BE7204B9A6AF4
:10187400D2B222B10120F91DFFF7B2FE0EE09A6A3E
:1018840012F47F4F04D00120F91DFFF7FFFE05E09D
:101894009B6AB3F5803F9BD3FFF74EFE0346C7E731
:1018A4000020F91DE8E70020F91DEEE719498CE74F
:1018B400194A6E4610F4F87F8AB0184918BF1146C9
:1018C4006A46103B07934FF400731548ADF8203077
:1018D400144BCDE9050142F8103F00234FF4115198
:1018E4000548FFF7CFFAB54672E76FF30802B8E789
:1018F40000ED00E0EA5D00081C560008155E0008D3
:10190400515E0008685E0008895E0008975E000862
:10191400B65E0008D25E0008D15D0008BC5D000818
:10192400F65E000804000001044B5A6942F01002FC
:101934005A615A6922F008025A61704700ED00E0CA
:10194400EFF30880EFF3098101B57246FFF7FAFE61
:1019540001BD00BF0A4880F30888102080F3118875
:1019640008484FF40061401880F30988EFF31480AD
:101974000221084380F31488BFF36F8F03F03FF80C
:1019840070180020700B00201EF0040F0CBFEFF342
:101994000880EFF30980816911F8021C0229FFD045
:1019A40001B5724603F018F801BD00BF40B200282B
:1019B40007DB01234109034A00F01F00834042F87A
:1019C4002130704700E100E040B2002801F101013C
:1019D400ACBF00F16040064B4FEA0111C9B2ABBF86
:1019E40000F5614000F00F0080F8001319547047AF
:1019F40014ED00E0054B064A23F0404323F07F0337
:101A04009360BFF34F8FBFF36F8F704700000008E0
:101A140000ED00E042F8203C009B0B4942F81C3CDE
:101A2400019B21F0010142F8183C029B42F8081C7A
:101A340042F8143C4FF0807342F8043C0023203AEF
:101A440002658366704700BFBD13000800B50B4BE9
:101A540015469860426E0A4B0E461A602C4686F371
:101A640009880020034B98472046002100220023C8
:101A7400014C20471F4A0008BD1300083408002009
:101A8400900700201022014B1A61704700ED00E01E
:101A9400054B5A699B689A421FBF044A536843F036
:101AA40080535360704700BF3408002000ED00E00D
:101AB400084B9B6883420BD1EFF3058343B1064B7C
:101AC4005A6842F080525A605A6A22F400425A62BA
:101AD40003F05DBA3408002000ED00E011498A6883
:101AE4004FF030001044EFF3098C80E8F01F102011
:101AF40080F31288BFF36F8F0B4F4FF000664A6973
:101B04008A603E60506E094C2060906E002393669C
:101B140080F3118802F1300090E8F01F8CF30988FB
:101B2400704700003408002004ED00E09007002016
:101B3400002310210348C2180133292B82F8001313
:101B4400F9D1704700E100E008B5EFF30583064AD8
:101B5400103B02EBC30152F8330049688847BDE8E3
:101B64000840FFF795BF00BF4054000801480068D3
:101B74007047000090070020F0B587B007460E4676
:101B840014460021102268461D4603F0FDFA022384
:101B94008DF80230054B2A4621466846CDE9047685
:101BA400019301F03BFE07B0F0BD00BF474A0008B7
:101BB40008B5024B1B689847002008BD9407002015
:101BC400034B044A1860937843F002039370704700
:101BD400940700201000002008B50649064821F0AB
:101BE4000701C1F1005202F5A04202F086F800207C
:101BF40008BD00BF7718002098070020012100F0DD
:101C04001F021F2808B501FA02F2034605D9064847
:101C1400064A02F021FE002008BD054B5B699A4389
:101C24000CBF01200020F7E7F4550008095F000805
:101C340000040140012100F01F021F2808B501FA29
:101C440002F2034606D90548054A02F005FE6FF084
:101C5400150008BD034B00205A61FAE7F45500084B
:101C6400095F000800040140044B184400230133B9
:101C74008B4200F8012BFADB704700BF58000020AC
:101C84002DE9F041054600264FF001080E4F6B7810
:101C9400F4B2A34201D8BDE8F0812B781C4420465D
:101CA400FFF7ACFF68B12046FFF7C4FF57F83430A4
:101CB4003BB107EBC40204F01F04516808FA04F0B6
:101CC40098470136E3E700BFA4070020034660B14C
:101CD400B0FA80F2C2F11F02D2B205498856054A11
:101CE40011680B431360FFF761BEFF22F5E700BFE5
:101CF4005800002000040140024A136823EA00034C
:101D04001360704700040140032921D8DFE801F083
:101D1400020C10190F4B9A6822EA00029A60DA68E2
:101D240022EA0002DA6070470A4B9A680243F5E738
:101D3400084BDA680243DA609A6822EA00029A6081
:101D44007047044B9A6802439A60DA681043D8607B
:101D5400704700BF0004014030B5B0B1B0FA80F361
:101D6400C3F11F03DBB20B4850F833408C4204D15B
:101D740000EBC3056D68954205D044B940F83310B3
:101D840000EBC3004260002030BDFF23EBE76FF09F
:101D94000F00F9E7A407002060B1B0FA80F3C3F1A3
:101DA4001F03DBB20021044A42F8331002EBC302E2
:101DB40051607047FF23F5E7A40700200F2300F0CC
:101DC400030204329200934043EA9000C3B2064AED
:101DD400023352F82320030C93FAA3F3B3FA83F3E8
:101DE40002EA1040D84070470000014038B51C4B4F
:101DF4000D4618680B881446C3F30B03013B1B2BD9
:101E040028D8DFE803F00F1E1E1E0E27180F0F2719
:101E14002727272727272727270F2727270F27277E
:101E24002716104820602B68B3F5805F0BD2002082
:101E340038BD4008F6E702F0FDFE70B102F0FAFE8C
:101E4400F0E70020EEE7C3F313330133B0FBF3F004
:101E54002060ECE76FF08500EAE76FF00400E7E745
:101E64004400002000127A00F8B5384F02F0E4FE76
:101E7400384602F0DEFE00F04FFC354C354A63680C
:101E84001578C3F30313D35C47FA05F520FA03F678
:101E9400AE4202D2284600F065FC236823F4802376
:101EA4002360236843F48033236023689B03FCD5B9
:101EB400636803F00C03082B15D12368980706D434
:101EC400236843F00103236023689907FCD5636802
:101ED40023F003036360636813F00C0FFBD16368A2
:101EE40023F0F0036360236823F080732360236886
:101EF4009A01FCD400F032F8236843F08073236025
:101F040023689B01FCD5636823F0F0036360636876
:101F140023F0030343F002036360636803F00C03DC
:101F2400082BFAD1AE4202D3284600F01BFC0A4B20
:101F340000201F60636823F4E06343F480636360FC
:101F4400636823F460536360F8BD00BF00A24A04D1
:101F5400001002406B61000844000020054A5368E9
:101F640023F47C1343F4E8135360536823F480038D
:101F7400536070470010024008B5074802F0D2FFD2
:101F840038B10648FFF71CFE0448FEF799FC002010
:101F940008BD6FF01200FBE724540008A51F0008D9
:101FA4000A2838B50446074D04D1AB680D212846EC
:101FB4005B689847AB6803485B68E1B29847204682
:101FC40038BD00BF245400082DE9F843D0F804902C
:101FD40090460746D9F808000D461E4602F087FDD4
:101FE400B8F5001F044616D12846D9F80840FFF773
:101FF400E5FE84420CD1294602F079FD0446FFF740
:102004007BFE2046FFF7C8FE00212046FFF77CFE3A
:102014000020BDE8F883B8F5800F20D0B6F1806FBA
:1020240019D0B6F1C06F18D0B6F1007F1AD10226CC
:102034003A4620460E49FFF78FFEB0B92846D9F834
:10204400081002F059FD20463146FFF75DFE204698
:10205400FFF73CFEDCE70126EAE70326E8E76FF03A
:102064008500D6E76FF01500D3E76FF00F00D0E7D7
:10207400D34C00082DE9F8431446A20381460F46C9
:10208400D0F810801FD5A3071AD5660747D54FF49B
:102094006066250348BF46F400560221214A2248BF
:1020A40002F0D1FB04F44035D8F8042022FA07F3F7
:1020B400D9075FBF0123BB401343C8F804300EE0C7
:1020C4004FF4C066E5E7E00304F0300505D5FDB93B
:1020D4004FF400664FF48035E6E705BB2E4604F462
:1020E4004023003B18BF012332463946484602F0DC
:1020F400B7FA55B9D8F8043023FA07F2D20741BF2A
:102104000122BA409343C8F804300020BDE8F883A4
:10211400102D0CBF4FF440564FF48056DAE76FF0A1
:102124008500F3E7565F00082C560008F7B5002237
:10213400044613468A4223D3E3B1234A13F0010F22
:10214400906940F0010090619269C3F3440002F089
:1021540001020192019A4FEA132202FA00F21B488B
:1021640009BF4368C369134343F0E06316BF1A43CE
:102174004360C26104EB8105A5420FD100201DE03C
:1021840054F82200C0F389302BB128B1984203D00F
:102194006FF0150012E003460132CBE754F8046BEC
:1021A40006F01F00C6F34317FEF7B2FB40B101234C
:1021B4003246394602F054FA0028DDDA03B0F0BDA5
:1021C4006FF01200FAE700BF001002400000014067
:1021D4002DE9F04182B0436806460C461D6800AF05
:1021E40000293FD0586819698368DB6873B13A1DC8
:1021F4009847B0F100080CDA01211E4A1E4802F08B
:1022040022FB40460837BD46BDE8F0816FF0570811
:10221400F2E719237A6864215A43A300B2FBF3F26C
:10222400B2FBF1F001FB10231B013233B3FBF1F3DA
:1022340003EB00130F2B18D86D468AB033686A4637
:102244000E490794CDE905134FF40073ADF820301F
:102254000B4B42F8103F00234FF411510648FEF790
:1022640011FEAD466FF01508CBE79BB24FF00008A6
:10227400AB60C6E7995F00084C560008C75F0008CA
:1022840004000001F8B50C46036941681E6823790F
:10229400012B33D09A1E55425541AD026279022A70
:1022A40096BF364F4FF4005C37F812C0A279042A67
:1022B40027D0003B18BF01231B03E279012A0A68D7
:1022C4000CBF4FF440770027A642D1681CD121F4FB
:1022D400B05129430B43D360136923F4405343EAB9
:1022E4000C03136143681A68536923F440733B4336
:1022F40053613168BDE8F840FFF76ABF4FF4C06529
:10230400CCE74FF48053D8E701F4C0618D421FBF7E
:10231400D16821F4C0612943D160426811680A6917
:1023240002F4405294451FBF0A6922F4405242EA23
:102334000C020A6142681168CA6802F4805293422E
:102344001FBFCA6822F480521343CB6043681A68E3
:10235400536903F440739F421FBF536923F44073CE
:102364003B43536121683368994205D0FFF730FF3E
:1023740008B923683360F8BD0020FCE764580008FE
:10238400F7B5456806466868296983681B6863B1C0
:102394009847044658B90021686A01AA02F0ADFCC6
:1023A400041E0CDA204603B0F0BD6FF0570401217F
:1023B400244A254802F047FA002CF3DBEBE7019BA3
:1023C400002219791868FFF7B1FE041EEADB77686A
:1023D40033693D681C68EB6823F40053EB60B8680C
:1023E40002F0A0FD38B90121184A174802F02BFA6F
:1023F4006FF01204D6E7D7E902018368DB6803B102
:10240400984705F10C0353E8003F43F00C0305F132
:102414000C0141E80032002AF3D121463046FFF78F
:1024240031FF044650B93B7E1BB16B6943F008038E
:102434006B61EB6843F40053EB60B3E76FF0150492
:10244400B0E700BFDE5F00084C560008FE5F0008DE
:10245400F8B543680C461D6803691E680B79012BA7
:102464001AD0991E4A424A41920294F805C0A779AB
:10247400BCF1020F96BF2B494FF4005131F81C10E8
:10248400042F00D083B1A3F1030EBEF1010F06D8CF
:102494006FF085031846F8BD4FF4C062E5E70BB151
:1024A400042FF5D04FF48053B1F5805F31D0B1F5EE
:1024B400405F30D000290CBF012103218C45E7D1B6
:1024C4005BB3002A0CBF042303239F42E0D1E379CA
:1024D40063B1012BDCD1144B9D4207D0A3F57443A7
:1024E4009D4203D003F580639D42D1D1EB68214620
:1024F40023F40053EB60FFF7C5FE03460028C7D161
:10250400EA6842F40052EA6094E8030086E80300B3
:10251400C0E70021D2E70221D0E7002A0CBF032341
:102524000223D2E764580008003801404FF0E0234A
:1025340010B599691C699B6900B103600B4A0C488A
:102544001268002908BF1146002B08BF134614F473
:10255400803F01D1994205D20168114401604FF0D6
:10256400E021096900681044C01A10BD3008002039
:102574002408002010220B4B002083F823204FF462
:102584003472094B1A604FF4E152084B1A60084B3D
:1025940041F61F4218604FF0E0235A610722986108
:1025A4001A61704700ED00E02C080020300800207C
:1025B40024080020684620F007018D46F1B502F09A
:1025C40091FC04460020FFF7B1FF1348134A036847
:1025D400D2E900515B1941F10001C2E90031002741
:1025E4004FF4E1520E4D0760D5E900619B1BB3FB2C
:1025F400F2F002FB00F39B1941F10001C5E900313F
:10260400084B21461F6000F087FFFFF741FABDE841
:10261400F1408546704700BF24080020880500204B
:1026240080050020280800202DE9F341804601A8F8
:10263400FFF77CFF00272649264AD1E90034C31856
:10264400254844F100041760D0E90020B3EB020CE4
:10265400C1E90034214E64EB0004214BBC423568CF
:1026640018681ADB4FF4E15E1E4B1B6813EB08037A
:10267400A3FB0E3247EB07080EFB0822B3EB0C0357
:1026840062EB04029842974107DAB3F1807F72F15A
:102694000002A8BF6FF07F4318464FF0E0230022EA
:1026A400306001389C6958619A614FF00072C3F838
:1026B400042D019BD1E90020A34238BF5B191B1BE9
:1026C4009A1840F10000C1E9002002B0BDE8F08191
:1026D4008805002024080020800500203008002000
:1026E4002C0800202808002010B5084B00201C6886
:1026F400074B1B68E41AFFF719FF4FF4E15320441A
:10270400B0FBF3F0034B186010BD00BF8805002038
:1027140080050020280800200D4A536803F00C01AE
:10272400082912D10B48C3F38341DB03405C09D56C
:102734005368094AC3F340435043084AD35CB0FB8F
:10274400F3F07047064B584370470348704700BF87
:10275400001002407D61000800127A007B610008CD
:1027640000093D00D8B1104B984216D80F4B98423F
:1027740094BF002001200E4A136823F0070303438B
:102784001360136803F0070398420AD0136803F038
:102794000703181A18BF012070470220EBE7012035
:1027A40070470020704700BF006CDC0200366E01E9
:1027B4000020024010B50446FEF796FA03480121B2
:1027C400034A02F040F8204602F0B7FB1C5600080A
:1027D400546000082DE9F84304460D4600AFEFF3BA
:1027E4001188102383F31288BFF36F8F04282A4AB9
:1027F40098BF2A4BE9468AB09668117C98BF53F873
:1028040020306A4688BF264BCDE9073140F20133B8
:102814002448ADF82430244BCDE9050442F8103F98
:1028240000234FF431512148FEF72CFBCD4645B12E
:10283400EB69C3F3080323B101211D4A1B4802F0CD
:1028440002F82EB1304602F0A0FB08B1037803B9B8
:102854001848E9468AB06A46174B0790CDE9053611
:1028640040F20133ADF82030144B42F8103F0023FE
:102874004FF411510D48FEF705FB2946CD4620467D
:10288400FFF798FF88F31188BFF36F8F3046FFF787
:102894000FF9BD46BDE8F883340800203858000815
:1028A400646000087A600008050000011C560008F6
:1028B400A260000872600008C36000080400000100
:1028C40038B50A4B53F82040013053F82050A54244
:1028D40000D838BD606830B1037EDB0701D402F054
:1028E40009FB0834F3E723689847FAE74C580008D3
:1028F400012270B52C4B2D4C2D4D86B01A70AC4274
:102904001CD30320FFF7DCFF0420FFF7D9FF294C79
:10291400294D2646AE4204F1300413D300F030FCB6
:10292400244CAC422AD300F03FFCFDF759FD234A66
:10293400938923F00103938106B070BD54F8043BDE
:102944009847DCE754F80C3C059354F8103C049386
:1029540054F8143C039354F8183C029354F81C3C68
:10296400019354F8203C009354E90A2354E90C01E0
:1029740000F026F954F8303C5E65CAE7D4E90A232E
:10298400B3F1FF3F08BFB2F1FF3F05D052EA0301A4
:10299400206803D100F05CF93034C2E708491830EC
:1029A40000F0D2FCF8E700BF670800208855000853
:1029B400885500088855000888550008000600203E
:1029C400AD500008702370B5134E012203FB00665E
:1029D400002386B0CDE904230F220193CDE902320E
:1029E40014230E4D0E4903FB0055044601EB002150
:1029F4004FF4807230460B4B009500F0E1F8337CC5
:102A04002C7423F004033374074B013403EBC42305
:102A1400EE606B6006B070BD9005002034080020A5
:102A2400701300204F4F0008700B00207FB500206A
:102A3400FFF746FF2B4B83F308882B4C2B4D636920
:102A440043F400736361F02384F822300023E377B6
:102A540023766376A37684F82030636A43F4E02314
:102A64006362FEF761FFFFF70DF84FF0FF33A362D7
:102A7400E362FEF799F81E4800F0E0F8FDF75AFF0C
:102A84001C4CAC422AD30120FFF71AFF02201A4C37
:102A9400FFF716FF00F06CFB184B00255C61184B28
:102AA4004FF48062059301231649CDE90353204670
:102AB400154BCDE90155009500F082F80646237CBC
:102AC400204623F00403237402F094FA2846FFF707
:102AD40079FF314620460C4AFEF7B8FF54F8043B10
:102AE4009847CEE77013002000ED00E088550008F9
:102AF40070060020885500080006002034080020D5
:102B0400F159000870140020F528000870B5EFF39F
:102B14001186102383F31288BFF36F8F0468A042D9
:102B24001BD0D4B1D4E90032002513605A60237C51
:102B3400C4E9005523F002032374A56004F11800CE
:102B440000F092FC2046E566656100F01FF931460D
:102B5400BDE87040064800F021BAD0E902329A423A
:102B640018BF0133836086F31188BFF36F8F70BD84
:102B74006808002013B5EFF31181102484F3128840
:102B8400BFF36F8F846844B1013C846081F3118882
:102B9400BFF36F8F002002B010BD52EA030406D1C8
:102BA40081F31188BFF36F8F6FF00F00F3E7CDE966
:102BB40000230246014800F069FAECE768080020A7
:102BC4002DE9FF4D984600F15803C0E91633109BD8
:102BD4000026838104234FF0000A4FF0000BD51D1B
:102BE400037425F007050F9B0D440F468373294694
:102BF400C0E90666C0E908AB8660C6730446FEF702
:102C04007BFC0E9B073002930D9B20F00700019381
:102C14000C9B2D1A00932A46434639462046FEF75C
:102C2400F9FE054B66659B6803B11B6E2846236657
:102C340004B0BDE8F08D00BF340800200123037404
:102C4400838100230366014B986070473408002099
:102C540038B50446EFF31185102383F31288BFF3CC
:102C64006F8F037C5B070FD5183000F0FDFB237CCE
:102C7400204623F00403237400F088F82946BDE8B5
:102C84003840044800F08AB985F31188BFF36F8F88
:102C940038BD00BF68080020F0B5002587B0059551
:102CA400109DDDE9127604950F9D044603950E9D53
:102CB40002950D9D01950C9D0095FFF781FFB6F1DE
:102CC400FF3F08BFB7F1FF3F05D056EA070305D120
:102CD4002046FFF7BDFF204607B0F0BD3A46334615
:102CE40004F11800014900F02FFBF4E7AD5000088F
:102CF4006FF00A01084A9368D966084998664B68D8
:102D040043F080534B60002383F31188BFF36F8F2C
:102D14009368D86E704700BF3408002000ED00E0CF
:102D240038B5184CA168E0690B68814214BF1A4693
:102D3400002249680B605960A368E1692AB9124A04
:102D4400C3E900210B60E3610AE092F90E5093F9A4
:102D54000E00854212DD5168C3E900210B60536007
:102D6400A569094B9D4200D005B9E568A3689D4259
:102D740002D0284602F0DCF9656138BD8A42DED013
:102D84001268DBE7340800204C08002070B590F985
:102D94001020037C002A2FDBD9062DD11A4C63F0B6
:102DA4007F032246037452F8183FE169934207D126
:102DB400C0E900210860E0610FE09942F8D01B6887
:102DC400002BF5D093F90E6090F90E50AE42F4DD6D
:102DD4005968C0E9003108605860A569954200D07F
:102DE40005B9E568A3681A7CD20606D1DA897F2A78
:102DF40003D9AA690AB9636170BDAB4202D02846FF
:102E040002F096F96561F7E73408002038B590F9C7
:102E140010200146002A037C04DA03F07F030374C4
:102E240002F0D6F80D4D2A4652F8184FAB6894427A
:102E340000D004B9EC688B4207D01A7CD20604D1C6
:102E4400DA897F2A01D9A2692AB1A34202D0204695
:102E540002F06EF923466B6138BD00BF34080020D0
:102E6400002A2DE9F8430CBF4FF010084FF0080872
:102E7400027C044618EA020F0D4662D148EA0203B6
:102E8400D2090CD10374B8F1080F7BD1A36813B134
:102E9400204602F0A5F8102704F118060FE003F00D
:102EA4007F03037402F094F8EDE785F31188BFF310
:102EB4006F8FEFF3118587F31288BFF36F8F30465E
:102EC40000F0D2FA0B30F0D0A66D04F15807B742E7
:102ED40011D04FF0000976B1304602F081F8C6F8FF
:102EE4006C9006F1180000F0BFFA3046FFF74EFF71
:102EF400A66DB742EFD1274B9B689C4242D1EFF3BA
:102F04000587003F18BF0127DFF888904B4653F828
:102F1400186F9E4200D00EB9D9F80C60D9F8083069
:102F2400B34202D0304602F003F9B8F1100FC9F8E9
:102F3400146006D0204601F06DFD17B11648FFF766
:102F44007DFE144B9B68A3421ED1EFF30583DBB9CE
:102F5400A289D20711D585F31188BFF36F8F83F34C
:102F64001188BFF36F8F0423184602DFEFF3118536
:102F7400102383F31288BFF36F8F2846BDE8F8430C
:102F8400FFF7B6BE0027BFE785F31188BFF36F8F45
:102F9400BDE8F883340800207006002049B9EFF337
:102FA400058030B9054B5A699B689A4201D0FFF7F6
:102FB4009FBE81F31188BFF36F8F704734080020E0
:102FC40070B50F4D06462B4653F8184F9C4200D05F
:102FD40004B9EC68AB681A7CD20604D1DA897F2A7A
:102FE40001D9A2692AB1A34202D0204602F0A0F876
:102FF40023466B613146BDE870400248FFF7CEBFFF
:10300400340800206808002070B5EFF311861023FF
:1030140083F31288BFF36F8F1A4CA168E0690B68C1
:10302400814214BF1A46002249680B605960A368A4
:10303400E1692AB9144AC3E900210B60E3610AE09B
:1030440092F90E5093F90E00854216DD5168C3E9DA
:1030540000210B605360A5690B4B9D4200D005B95C
:10306400E568A3689D4202D0284602F061F86561D4
:103074003046BDE87040FFF73BBE8A42DAD01268A2
:10308400D7E700BF340800204C080020F8B5DDE97C
:1030940006670C461146EFF305833BB1002383F327
:1030A4001188BFF36F8F0423184602DF0D4B0E4ABD
:1030B40098681060EFF31182102282F31288BFF334
:1030C4006F8F9D68284601F0A4FF32463B4605F108
:1030D4001800064900F038F92046BDE8F840FFF72B
:1030E40007BE00BF3408002054080020AD5000087B
:1030F400F8B550EA010305460C4603D101F066FF1A
:103104000020F8BDEFF31187102383F31288BFF377
:103114006F8F134E134BB0681860FFF777FEB068DB
:103124002A4623461049183000F00EF9B3680446C5
:103134001A7C9F6642F004021A746FF00A02DA667F
:103144000A4A536843F080535360002383F3118881
:10315400BFF36F8F01F0F3FF201A20EAE070D0E78D
:103164003408002054080020AD50000800ED00E0B1
:10317400024B03F11802C3E9062270473408002009
:10318400EFF31181102383F31288BFF36F8F054B84
:103194009A68D37B013BD37381F31188BFF36F8F9C
:1031A400704700BF34080020EFF31180102383F32D
:1031B4001288BFF36F8F034B9A68D37B0133D373A9
:1031C400FFF7FEBE34080020014B9868704700BF2B
:1031D40034080020027C034612F01F0210D10A4971
:1031E40088420DD00949086868B1D9897F2909D86E
:1031F40093F90E20064B1B689A42B8BF0020704713
:1032040000207047104670479005002048000020B9
:10321400580800200122044BC01A044BC010584324
:10322400034B1A54704700BFE0060020ABAAAAAAB9
:1032340068080020F8B50B4B04461E7C18230A4D81
:103244000A4F03FB0655284600F00EF934B1BB5D66
:103254002846E21A0649D31700F076F80023BB5536
:10326400F8BD00BF34080020E006002068080020F4
:1032740019320008F8B5EFF31187102383F312888D
:10328400BFF36F8F124E134BB5681868A84206D16E
:1032940001F04EFF87F31188BFF36F8FF8BD002252
:1032A4001A60337C0C4AD35C002BF3D02846FFF71A
:1032B40091FF04460028EDD02B7CDB06EAD1FFF712
:1032C4002FFD7369AB42E5D12046FFF7B3FFE1E779
:1032D400340800205408002068080020024B1868B5
:1032E400984208BF002070474C00002008B50246F1
:1032F400FFF7F4FF6FF00041C8B18A4215D2D0E95C
:103304000230B0F1FF3F08BFB3F1FF3F03D16FF0CC
:103314000040801A08BD8B4270F1000001DB0548B3
:10332400F7E79A4201D2981AF4E70020F2E78A42BA
:10333400EDD3EFE7FEFFFF7F024B186808B1FFF7FC
:10334400D3B9704754000020B3F1FF3F08BFB2F176
:10335400FF3F2DE9F84F04469A461546984679D022
:103364000161EFF31187102383F31288BFF36F8F8A
:10337400BAF1000FDFF8E49023DBFFF7DDFF384BF1
:1033840006461A68003A18BF012245194AF100039B
:10339400521943F10003D9E90051551943EB0108CF
:1033A4000121DFF8C090C4E90223FFF797FFD9F8A1
:1033B40004A0D0B9C4E9009ACAF80040C9F804408E
:1033C40025E06FF00102D9E90013521A4FF0FF31E2
:1033D40061EB0303521B63EB0A03012A73F100013F
:1033E400BCBF012200230021DBE7D0E9022ED4E98F
:1033F400023C93427CEB0E0B23DAD21A6EEB0C03E5
:10340400C0E902234368C4E900031C604460FFF779
:1034140065FF84420DD1124B1B68013309D111B9E8
:10342400FFF78AFF06463046FFF760FF0021FFF7EB
:10343400FBF887F31188BFF36F8F28464146BDE838
:10344400F88F9B1A6CEB0E025045C4E90232B1D0DE
:103454000068AEE70025A846EFE700BFF8060020A5
:10346400540000204C000020F8B50446EFF3118608
:10347400102383F31288BFF36F8F026872B3FFF7D0
:103484002DFF184B5B689C4208D0D2E90231D4E985
:103494000275DB1941EB0501C2E90231D4E90032BE
:1034A4000025844213605A60C4E900550ED0002000
:1034B4000D4A136823F001018C4204BF43F0010359
:1034C400136086F31188BFF36F8FF8BDFFF734FFE5
:1034D400FFF70CFF2946FFF7A7F8E8E76FF01500A0
:1034E400E6E700BF4C0000205C080020EFF31182E7
:1034F400102383F31288BFF36F8F064B40F0010053
:103504001B681B1A5842584182F31188BFF36F8F0E
:10351400704700BF5C08002000232DE9F0470C46EB
:10352400334E344DDFF8D090344F30602B60D6F8F2
:103534000080B8F1000F10D14FF0FF3340462B60EC
:10354400FFF7D4FE4146FFF76FF884F31188BFF309
:103554006F8FBDE8F047FFF78DBEFFF7BFFE6FF03A
:10356400004330B1D0E90212994272F10002B8BFAF
:103574000B464345194684BF434641464FEAE37C24
:1035840038B18268D0F80CE0D21A6EEB0C0EC0E9A8
:10359400022EA8EB01014FF0000A4FF01008D9F8F1
:1035A40000203160D218D9F8043043EB0C03C9E988
:1035B4000023FFF793FE0028B9D0D0E902120A4392
:1035C400B5D1D0E900210A6051600269C0E900AABE
:1035D400386084F31188BFF36F8F9047EFF3118441
:1035E40088F31288BFF36F8FC7F800A0E1E700BF2C
:1035F4006008002054000020F80600205C08002029
:1036040010B5EFF31184102383F31288BFF36F8F87
:10361400FFF792FE054AD2E90031C01841F10001DA
:1036240084F31188BFF36F8F10BD00BFF80600202C
:103634002DE9F0410446EFF31186102383F3128839
:10364400BFF36F8F03682BB186F31188BFF36F8FBD
:10365400BDE8F081FFF74AFF07460028F4D1D4E91A
:103664000A586A1C48F10003022A73F1000324D3A8
:1036740001F069FD281848EB0101012871F10001EE
:1036840041DB01F060FD6FF00203281848EB0101F3
:1036940083426FF000438B413ADB01F054FD6FF03D
:1036A40001022D1848EB01034FF0FF31521B61EB6F
:1036B400030320461849FFF747FE236B01332363B6
:1036C400236A63B186F31188BFF36F8F204698474E
:1036D400EFF31186102383F31288BFF36F8F54F82E
:1036E400185FA542B0D0002DAED0284601F0B7FC3B
:1036F4000023EB6686F31188BFF36F8F2846BDE87D
:10370400F04101F077BC6FF001024FF0FF33D0E7D6
:103714003A464FF00043CCE735360008B3F1FF3F9B
:1037240008BFB2F1FF3FF8B5044616461D4618D04F
:10373400EFF31187102383F31288BFF36F8FFFF722
:1037440093FEDDE906010023C4E90A01236332463E
:103754002B4620460349FFF7F7FD87F31188BFF393
:103764006F8FF8BD3536000870B50546EFF3118448
:10377400102686F31288BFF36F8FFFF775FE20B112
:1037840084F31188BFF36F8F70BD6B6A63B184F3E8
:103794001188BFF36F8F28466B6A9847EFF3118443
:1037A40086F31288BFF36F8F05F1180001F091FCC6
:1037B4000028E5D001F01EFC2146BDE87040014818
:1037C400FFF7ECBB690800200CB430B58BB004469D
:1037D4000D462022002102A801F0D6FC02238DF818
:1037E4000A300D4B002D0393069412DB01D06B1E9F
:1037F4001C440FAA0E9902A80794019200F00EF837
:1038040015B10022069B1A700BB0BDE8304002B01F
:1038140070470024EDE700BF635200082DE9F04F24
:1038240043688BB00093837880469C07924640F1AE
:10383400F98000250878002800F0F68025280AD0B1
:103844004B1C019341460135009B98470028C0F268
:10385400E3800199EEE74E788B1C252E0193F1D07D
:1038640000270A22B9463C461F2C22D8A6F1200381
:10387400102B20D8DFE803F0141F1F1A1F1F1F0B83
:103884001F1F1F121F171F1F090044F00104019B73
:1038940013F8016B0193002EE6D13AE044F00204E0
:1038A40044F00404F3E744F00804F0E744F010049F
:1038B400EDE77F2C24D8A6F13003092B08D8600645
:1038C4004EBF02FB073702FB093944F02004DEE750
:1038D4002A2E0DD161065AF8043B53D4002BA7BFFE
:1038E400994644F02004C3F1000944F02804CEE7CB
:1038F4002E2E05D1630600F1978044F04004C6E7FC
:103904006C2E2ED028D8682E32D06A2E37D04C2E6A
:1039140035D0002F46F02003B8BF24F04004A3F1B3
:103924006502BCBF0027A4B2022A01D9612B2BD1A6
:1039340007270AF1070A2AF0070A9C4E0AF1080A27
:10394400210760D5344606EB070B5C455DD1AE1B01
:10395400A219A9EB070959E1742E98D07A2E96D0B2
:10396400D7E7260648BF44F4007444F080048EE789
:10397400E00548BF44F4007444F4807487E744F4D9
:10398400207484E71F4682E7A6F16302122A00F23C
:10399400D880DFE812F013004D00D600D600D60020
:1039A400D6004D00D600D600D600D600D600E800DA
:1039B400D100D600D6001A00D600A0005AF8043B65
:1039C40001278DF8103004AEBAE75AF8046B784B2F
:1039D400002E08BF1E4614F0400F14BF39464FF0A6
:1039E400FF31304601F0D8FB0746A9E741462020C5
:1039F400009B984700280FDB013CA742F6D34D44B7
:103A04002D1BA1469EE74C46F7E7414614F8010BEF
:103A1400009B9847002898DA98F8023043F0040392
:103A240088F802304FF0FF3528460BB0BDE8F08F20
:103A3400220630D5A3052AD50AF1070A2AF007037E
:103A44009A4659685AF8080B24F0100B00291FFAFB
:103A54008BFB2FDA404261EB41014BF4806B0A236C
:103A640004AC224601F0A4FB1BF0400FA0EB0402BF
:103A740000F08E802BF001049742A4B240F38F80B3
:103A8400002E40F08E802BF01104A4B21DE05AF8F1
:103A9400040BC117D8E7E0055AF8041B01D4084603
:103AA400F7E7A2054BBF48B208B241F3C01141F396
:103AB400C031C9E750EA0103D1D16306CFD5002F45
:103AC400CDD13A4624F01104A4B23B4640F206415B
:103AD4000C4262D124E00A2324F01004A4B214F0AE
:103AE400800243D014F400711FBF0AF1070A2AF0C0
:103AF40007029246516814BF5AF8080B5AF8040B8F
:103B040050EA01023ED124F0160B62061FFA8BFB29
:103B14003CD5002F3AD13A463B4624F01704A4B2D0
:103B240021075AD4E10705D5994572DDA9EB0303B2
:103B34009F184B469B464AE01023782644F0100415
:103B4400CDE7782B04D1C6F1780343F01003C6E720
:103B540041462520009B98470028FFF65DAF41466B
:103B64003046023570E608230026B8E714F4807165
:103B74005AF8040BC4D014F400711ABF1146C0B231
:103B840080B2BDE724F006041FFA84FB04AC68E7A6
:103B940013465C46E10699D52EB90133C0E71346B6
:103BA400F8E73B46F6E70233BAE700BF28610008AE
:103BB400C3580008CDE9023241462020009B9847B3
:103BC4000028FFF629AFDDE902320BF1010BD945DC
:103BD400F0DCEB1A03EB0B055B46E10627D5CDE9D8
:103BE400023241463020009B98470028FFF614AF6C
:103BF400DDE902327EB901352F44791B8A4228DB84
:103C0400144604AE94BB2A44A9EB03091546914417
:103C140041E017468EE741463046CDE9023202358F
:103C2400009B9847DDE902320028E5DAF4E640F229
:103C340006410C42E0D014F0020F14BF2B202020C8
:103C440014F4806F414618BF2D20CDE902320135AE
:103C5400E6E7CDE902324146009B30209847DDE992
:103C64000232002805F10105C7DAD5E6013CCDE9A9
:103C740002324146009B305D9847DDE9023200285C
:103C8400C0DAC9E641462020009B9847002805F188
:103C94000105FFF6C1AEA9EB0503002BF2DCD8E564
:103CA400704700EBC100408840087047F8B50346F0
:103CB400FFF7F7FFB0FA80F0C0F11F0003EB800CB0
:103CC400DCF81060CA00171D0C4606328DB256B9D6
:103CD400012101FA00F0D9680143D960CCF8104001
:103CE400DD539D52F8BDF1000431585AD85303EB0B
:103CF400C0009E52C5805D52F4E7043A2DE9F843B2
:103D0400CC1D114424F0070421F00706A6EB040897
:103D14004FEAD807B7FA87F24FF00009C2F1240539
:103D2400AD000735C2F12002ED0804604946A760E2
:103D3400C4F80C90920004F1100001F025FAAAB224
:103D4400530043F0010363807B1B9BB204EBC5016A
:103D54005800A4F80090488024F83520A6F8029072
:103D640024F8083004EBC7035A88294642F00102BC
:103D74005A802046BDE8F843FFF798BF2DE9F04F7D
:103D8400054691B0994602F004030293C2F3C203BC
:103D94000133AC070E461046DDF868A0049340F0EA
:103DA40092812C1D8DBB01F00706341DC6F1080657
:103DB40000274FF0FF334FF004080193BB464346FE
:103DC40000F0020109F1FF320397009705910DB14C
:103DD400C4F800900498002809DC4846CDE906326E
:103DE400FCF75EFBDDE90632002800F0B28005989E
:103DF400002800F0CC800120A4EB050CBCF5007F6A
:103E0400C0F0AD806FF0150003E00729D0D86FF043
:103E14001B0011B0BDE8F08F7A285BD84B280FD86F
:103E2400472857D829282ED8252850D052D82028BA
:103E340018BF23280CBF4FF0010B4FF0000B71E0AB
:103E44004C382E2846D8DFE800F06D4545454545F9
:103E540045454545454548454545454545454556FA
:103E64004548485656566D486A456D4518481845A4
:103E7400457F7C48454548457C0000204FF0000BB9
:103E84004FF0040835E001212A38C0B201FA00F0ED
:103E940010EA0E0F46D110F0625C2CD110EA010B2F
:103EA40040D06046013C4444B4FBF8F408FB04F4FD
:103EB40025B1A3EB050CA444B445A8D8002800F010
:103EC400818004995AF8049B013904917FE7019990
:103ED400013901914FF0000B24E012F8010C6C2819
:103EE40034D1002012F8023C83466C2BC8D14FF029
:103EF40008084346D6E70AF1070A2AF0070A0734F6
:103F040024F00704FAE802BC35B106982044B04214
:103F14003FF67DAFC4E900BC4FF0000B08344FF00E
:103F24000808434612F8010F002864D0BBF1000FC3
:103F34007FF472AF2528F5D14FF0010B019B0133BB
:103F440001934FF00408ECE7584697E700208346B6
:103F5400A8E70599A4EB050C00297FF44FAF00995D
:103F64000F293FF64FAFEDB140310DEB010E019932
:103F7400CCF3870C0EF820CC0EF8101C70B16CF04A
:103F84007F0C0EF820CC0137009801300090C5F169
:103F940008014FF6DA7E04340691C3E70398013032
:103FA4000390F1E708B10136EEE7029902360029E1
:103FB400EAD14846CDE90632FCF7ACF8DDE9063231
:103FC4000644E1E7042B08D10AF1040015B1DAF83C
:103FD4000010216082460434A4E70AF1070323F0A9
:103FE400070303F1080A1DB1D3E90001C4E9000184
:103FF4000823083496E7631BB3F5806FBFF402AF60
:104004001DB9A6F10804E01803E7029A9B0828608A
:104014002B709DF80C30BAB1EB70AF7037B1002241
:1040240008A8C5F1010C009B93420FD14FF0000A80
:10403400C5F101030DF1200801930DF1300B009B34
:10404400534512D1601BE4E66B70E6E710F8013BC0
:10405400190608D50CEB040EB64503F07F033FF6B2
:10406400D6AE04F8013B0132DDE71FB198F9002018
:10407400002A17DB029BD3B11AF80B2004F8012B9A
:104084000022019B18191044B0423FF6C0AE98F8C4
:104094000000494604F8010B2046039201F066F83B
:1040A400039A14440AF1010A08F10108C7E798F8D1
:1040B4000020029B55F8229045F822304846FCF730
:1040C40029F8421CDDE76FF00D00A2E62DE9F04768
:1040D40006460D46174698462BB34FF0000A98F84B
:1040E400004093F80190DB78A40004EB430498F8B3
:1040F40002301C444444CA4509D339463046AC46D0
:10410400D8F8042008F10803BDE8F047604714F824
:10411400013B0AF1010A204648F82340FBF7FAFF65
:1041240001300444E7E76FF01500BDE8F08730B5CF
:1041340002460024002012F8013B43B178B18C42BE
:1041440007D1702B04D0A3F140053A2D07D80020E5
:1041540030BDA3F140053A2D01D80134EAE7252BFF
:1041640008BF80F00100E6E7002070470FB407B5F0
:1041740004A951F8040B019100F0E2FA03B05DF8D0
:1041840004EB04B0704710B50369024613F008004D
:1041940009D11368D4689C429BBF0120126AE31AB8
:1041A400D31A0B6010BD00231846FAE713B501A912
:1041B4000446FFF7E8FF20B1019BE268013B13448A
:1041C4000193206A019BC01A013802B010BD10B5DA
:1041D400044650182269236AD20702D5013B1840CD
:1041E40010BD984228BFC01AFAE710B504460A4623
:1041F400C168FFF7ECFF2369E06023F00803236143
:1042040010BD38B50D46C2698B00016843F0020346
:10421400044642F8213001682A46FFF7D8FFE368D4
:104224006168984208BF2369206008BF43F008030F
:104234002A46204608BF2361FFF7C9FF606038BDE6
:104244002DE9F74F0F460021D0F80CB0C669009253
:1042540016F82B209A4602F00302022A14BF89465C
:1042640056F82B2006EB8B030193009B08BFC2F387
:104274009D0919600446CAF80010B9F1000F07D06F
:104284004946FFF7B2FFE368A3604FF0010804E07A
:1042940001698A0705D44FF00008404603B0BDE821
:1042A400F08F816906EB8B00884716F82B100546C2
:1042B40011F00108EFD08B071DD51FB139462046F8
:1042C400FFF79FFF61682A462046FFF780FFD4E985
:1042D40002138B42606007D12A462046FFF777FF1E
:1042E4004FF000080146A0602369216043F00803F1
:1042F400E1602361D1E701462046FFF776FFE168DC
:10430400A1601FB12068E16941F82090EA19CAF858
:10431400002021682046FFF75AFF2269206042F0FE
:104324000802226116F82B2022F0010206F82B2045
:10433400DDE900321A60A8E770B504461546FFF7B8
:1043440046FF2368834205D12369216023F00803D3
:10435400236170BDE269AB0043F0020342F82130EF
:1043640061682A462046FFF732FF6060F1E738B5FE
:10437400036904465B0706D5456AFFF717FF8542C4
:104384002CBF6562606238BD38B50D4604461C22F8
:10439400002100F0F9FE0022EB68A361AB686361C1
:1043A4002B68E3616B68626223622A6923B1591E38
:1043B400194208BF42F001022261012204F12800DF
:1043C4000021BDE8384000F0CBBD2DE9F04F0025B9
:1043D4009846036A87B08B4204460E469346AA4623
:1043E4000395059538D3EFF31189102383F31288CD
:1043F400BFF36F8F059A2AB129462046FFF79CFF29
:104404000023059304A92046FFF7BDFE049907463F
:10441400B1422AD32268E369204613F8221003EB41
:10442400820A21F0030103F8221021683246FFF7C3
:10443400CEFEE3682060984212D0002789F31188E9
:10444400BFF36F8F039929B162690AB1204690477F
:1044540000230393002FC6D1504607B0BDE8F08F68
:10446400236943F008032361E7E718B12046FFF707
:10447400C8FEE3E75BEA08031CD0019100F07CFD71
:104484000199B8B9B9F1000F14D189F31188BFF3B8
:104494006F8F5A46434604F12800FEF76BFBEFF397
:1044A4001189102383F31288BFF36F8FB0FA80F75A
:1044B4007F09C3E7204605AB03AA2568FFF7C0FEC2
:1044C4000746BBE770B50446836908460D4698471E
:1044D4000246EFF31186102383F31288BFF36F8F24
:1044E4002B78204643F001032B706168FFF76FFEC1
:1044F40060602046FFF73BFF86F31188BFF36F8FA0
:1045040070BD2DE9F843044600271026EFF311850A
:1045140086F31288BFF36F8F2369A268190702D448
:104524006368934200D2236A9B1A002B42D0E0694D
:1045340010F8221000EB820911F003033AD0022B89
:1045440004D150F822305FEA930805D1CB0720D478
:104554004846A36998478046A16842462046FFF72B
:1045640036FE0127A06041462046FFF73EFE3B464B
:1045740085F31188BFF36F8F002BC7D137B1B9F121
:10458400000F03D104F12800FEF7C0FA4846BDE845
:10459400F88341F0020100F82210A3694846D4F8D8
:1045A40008809847414602462046FFF710FE002344
:1045B400A060DDE79946DBE7F8B504468369084661
:1045C4000D4698470646EFF31187102383F31288AC
:1045D400BFF36F8F2B7823F001032B7023699B07A4
:1045E40005D5E268E36903EB82039D421AD12B7877
:1045F40023F002032B70D4E90231994204D13246EC
:104604002046FFF7E4FDA06031462046FFF7EDFDAC
:1046140087F31188BFF36F8F04F12800BDE8F840D9
:10462400FEF774BA2B6860F39F032B60F0E7EFF397
:104634001181102383F31288BFF36F8F026983689B
:10464400120702D442689A4200D2026AD31A81F352
:104654001188BFF36F8F181E18BF01207047704771
:10466400F0B54068072944684FF0010001F00705E0
:1046740000FA01F64FEA062786BFA840384346EA07
:10468400070002F4F05788BF40F08060B7F5805F00
:1046940023D196044FEA10236FEA10201AD5E66856
:1046A400064093FAA3F00123B0FA80F08340334329
:1046B400E3600F20072988BF04342168AB00C2F3EC
:1046C40043229A4000FA03F321EA03031A432260C7
:1046D4000020F0BDE3680340EAE712F4C06FE8D0BD
:1046E400002BE6D0D004E4D493044CBF2661666169
:1046F400DFE703785B075FBF03684288C3F34A239D
:1047040003EB12105DBF173020F007008008002073
:104714007047002070470346BFF35B8F53E8000FD8
:10472400421C43E800210029F8D1BFF35B8F704796
:1047340008B500F008FD0A220023FBF7D1FC08BDF0
:104744001FB50023CDE902011A4619461846CDE9E2
:104754000033FCF717FC05B05DF804FB0120FCF7FF
:10476400C9B9002070474368DA71012243681960AF
:1047740043685A71FCF7B0B970B515460C4669B177
:10478400D2E901369B1B99420AD813680A460146AE
:10479400981900F0EBFCAB682344AB60204670BD75
:1047A4006FF01B00FBE770B50E461546194604462C
:1047B40018B9BDE87040FCF79DB933B1C2F34A2380
:1047C4001030120D184400F0D1FCC4E90056204604
:1047D400BDE87040FCF736BB2DE9F3415F1C4FEA9E
:1047E4008708064608F1170020F0070080080C46E9
:1047F4001546FCF701FA00238DF80470ADF8053076
:104804008DF8073068B10346019AA8F1040143F812
:10481400102F2A46294452F8045B8A4243F8045F65
:10482400F9D100233146A20102F4E07242EA48229F
:1048340022F07F4222F4700222F03F0202B0BDE86F
:10484400F041FFF7B0BF07B50123019201AAFFF7BA
:10485400C3FF03B05DF804FB07B5CDE900230223D1
:104864006A46FFF7B9FF03B05DF804FBF8B50646E6
:104874000D4614461F4604B9F8BD214628463A465B
:10488400B047241A0544F6E710B5426804460CCA3A
:1048940081680068FFF7EAFF002263681A6010BDB0
:1048A40038B54B6805461A68CB680C469A4202D163
:1048B4000846FFF7E9FF6368BFF35B8F53E8002FF7
:1048C400511C43E800100028F8D1BFF35B8FA368A4
:1048D40000209D5438BD0A2838B504460D4602D13F
:1048E4000D20FFF7DDFF29462046FFF7D9FF002002
:1048F40038BD2DE9F043054689B008460E8891F885
:1049040000900C46D1F808801746FCF78DFB011E79
:10491400C6F38216C9F3C2091FDB4846FCF7A4FAA2
:104924000346214651F8102B6088C2F34A22002A1C
:1049340001EB020408BF00210022C0F30B10CDE9F3
:104944000507CDE9031428464146CDE90022029625
:10495400FCF796FB09B0BDE8F0830023E1E7436868
:1049640000201B685B681961704743681B681A68FC
:1049740052685360704701212DE9F04143681B6878
:104984005A6811751D682F68D5E90136D3E90048C6
:104994001CB96B681C60BDE8F08121463046424674
:1049A400B847241A0644F3E743681B681868FCF701
:1049B400AFBC70B543680C461D686B681869FCF79A
:1049C40075F8214603460F222868BDE87040184751
:1049D40000F0DABB00F0CABB01460068FCF72EBD4C
:1049E40008B5FCF785FDBDE80840FDF751B80A4657
:1049F4000121FFF728BF00210120FCF71FBD08B5E6
:104A0400FCF7F8FFFCF7F2FCFCF7FCFCFDF790F870
:104A1400FEF70CF86FF08500704761B662B680F35C
:104A24001188BFF36F8F704772B6002383F3118828
:104A3400BFF36F8FBFF34F8F30BF62B6BFF36F8F7B
:104A4400704708B5D1E904319847002008BD08B57E
:104A5400FDF7AEF8002008BD0020704708B5062217
:104A640001210020FDF700F9002206201146FCF781
:104A7400ABFF012107220846FDF7F6F800220720C4
:104A84001146FCF7A1FF082201210220FDF7ECF8F2
:104A9400002208201146FCF797FF09220121032078
:104AA400FDF7E2F8002209201146FCF78DFF0A22E7
:104AB40001210420FDF7D8F800220A201146FCF752
:104AC40083FF052117220846FDF7CEF800221720A0
:104AD4001146FCF779FF282206210A20FDF7C4F8C5
:104AE400002228201146FCF76FFF002008BD01209A
:104AF40001F01F01884070470F2300F003020432C5
:104B04009200934043EA9000020C92FAA2F2B2FAA5
:104B140082F210B5C3B29B0003F1804303F58033E6
:104B24009C68914024EA10400143996010BD0B88B1
:104B340082B0C3F30B0303F6EC72C2F30B02082A30
:104B440014D803F1804303F504331A684868024318
:104B540000201A600B88C3F30B0303F1804303F5B1
:104B640004331B680193019B02B070476FF085000A
:104B7400FAE70B88C3F30B0303F6EC72C2F30B02E0
:104B8400082A9FBF03F1804303F504331A68496878
:104B94009BBF00208A436FF085001A60704701288C
:104BA40006D00538052834BF00206FF08500704713
:104BB4000020704770B508884B68C0F30B009AB2A8
:104BC400C3F30445FFF7EBFFA0B9FF2B11D002F1AB
:104BD40080410122C3F34156013601F50431B2404C
:104BE4000C68013AAA401B0E24EA0202AB401343AC
:104BF4000B6070BD6FF08500FBE7088808B5C0F353
:104C04000B0000F6EC73C3F30B03082B0AD800F176
:104C1400804000F5043002684B6893430CBF0220C7
:104C2400012008BDFFF7BBFF00280CBF02200120B4
:104C3400F7E77047002070477047436800205B68BF
:104C44009B680B60704743685B68D86842400A40C1
:104C54004240DA6000207047436800205B681961B5
:104C64007047436800205B685961704743680020BF
:104C74005B68DA685140D960704730B50369986859
:104C840000B30024884219D108688CB9DC689860A4
:104C9400A14200D1D860002008602AB19A680A6055
:104CA400DA68996002B9D96000200FE02846E9E784
:104CB4002060D868814208BFDC60ECE705680446E0
:104CC400002DF3D1002AE9D16FF0150030BD70B585
:104CD4000B690E469968054609B10C6801B970BDA7
:104CE4008A682A4002D030464B6898471CB1236832
:104CF40021461C46F2E72346FAE730B50368136001
:104D04000579046804EBC504A34202D36FF00100E3
:104D140030BD5C7908338C42F1D10020F8E7436858
:104D2400C1F34B101B6801F01F01C05801238B40D5
:104D34000340003B18BF012300201370704710B5D7
:104D44004368C1F34B101A680123845801F01F0112
:104D54008B4023438350002010BD012210B54368CB
:104D6400C1F34B14186801F01F0123588A4023EA49
:104D740002032350002010BD38B504460D46FFF74A
:104D8400DEFF29462046FFF7E8FF002038BD036810
:104D940082B00193019B43680193019B02B0704769
:104DA40008B54368186802680368C2F3C00203F0D8
:104DB400010342EA430203689B07036848BF42F0C9
:104DC40004025907036848BF42F02002DB0542BFD2
:104DD4006FF4807342F008020360D10701D5FFF736
:104DE400D6FF930701D5FFF7D2FF510701D5FFF78F
:104DF400CEFF930601D5FFF7CAFF104608BD08B5DC
:104E04004368186803681A0701D5FFF7C0FF0368F1
:104E14009B0649BF43684FF0FF3000200B7008BD6C
:104E240010B5436810201B681A681206FCD5EFF30E
:104E3400118280F31288BFF36F8F1C68240604D498
:104E440082F31188BFF36F8FEEE7596082F3118804
:104E5400BFF36F8F10BD03691B681B680B60436849
:104E64001B68DB6803F4C063B3F5806F2FD0A3F530
:104E7400C06CDCF1000343EB0C030B7143681B684B
:104E84001B6903F44053B3F5805F22D0B3F5405F50
:104E940021D0002B0CBF012303234B7143681B68F3
:104EA400DA68DB68D20403F4C06316D5002B0CBFA8
:104EB400042303238B71436800201B685B6903F49C
:104EC4004073A3F5407253425341CB7170470223A0
:104ED400D3E70023E1E70223DFE7002B0CBF032322
:104EE4000223E7E7EFF31180102383F31288BFF363
:104EF4006F8F704710B5436904463BB90020E268E0
:104F04004042537843F00103537010BD9847002882
:104F1400F4D00028B8BF4042FF28A8BFFF20E368B0
:104F24001870ECE740B1C368587810F001001EBF58
:104F34001878B0FA80F040097047EFF3118310231A
:104F440083F31288BFF36F8FFEE710B51024EFF3DD
:104F5400118384F31288BFF36F8FFFF765FDF6E7C3
:104F64003AB18A4205D3C0E90212C0E90000002028
:104F740070476FF015007047EFF30580003818BFD5
:104F8400012070476FF0570070470020704738B514
:104F94008589EFF31181102282F31288BFF36F8F9A
:104FA400037C13F0080404D081F31188BFF36F8FDE
:104FB40038BD0122FDF754FFEB07F9D584F31188BE
:104FC400BFF36F8F0423184602DFF1E7FEF71CB826
:104FD400D0E9003213605A600023C0E900337047FF
:104FE40008B5FFF7F5FF037C23F0020303740023E5
:104FF400836008BD10B5EFF31184102383F3128886
:10500400BFF36F8FFDF7C2FE84F31188BFF36F8F78
:1050140010BD38B504460D46FDF7F8FE237C43F079
:1050240002032374D5B1A5602B689D4209D16B6836
:10503400C4E900531C606C6010E06A689A42F6D0C0
:105044001B68002BF3D093F90E1094F90E209142B3
:10505400F3DD5A68C4E9003214605C6038BD08B5F9
:10506400EFF31181102282F31288BFF36F8F8368EC
:105074000BB1FFF7B5FF81F31188BFF36F8F08BD44
:1050840008B5037C014613F0280F0CD183680BB1DB
:10509400FFF7A6FF0B7C084623F004030B74BDE85E
:1050A4000840FDF773BE08BD38B50446EFF311851B
:1050B400102383F31288BFF36F8FFEF717FA18B922
:1050C400A4F11800FFF7DCFF85F31188BFF36F8F9D
:1050D40038BD08B50346EFF31181102282F312881C
:1050E400BFF36F8F0068834207D008B1FFF778FFE2
:1050F40081F31188BFF36F8F08BD0020F8E738B53E
:1051040005460C46FDF7F4FFB4F1FF3F08BFB5F1C7
:10511400FF3F0AD0C11709304FF00A024FF00003D5
:1051240041F10001FAF7DCFF38BD4FF0FF30FBE737
:1051340008B5FEF74FF8BDE80840FEF77BB808B5A0
:10514400FEF75EFA08BDFEF75BBA30B50023002413
:105154000025C0E9081200F11802C0E90622C0E9DE
:105164000033C0E902450363436330BD0A449142FE
:1051740000F1FF3300D1704710B511F8014B914293
:1051840003F8014FF9D110BD03460244934200D104
:10519400704703F8011BF9E7024610B501448A423F
:1051A400134603D01C780132002CF8D1181A10BD14
:1051B400F0B504461046C3F13707FFB203F01F03EE
:1051C400082BE6B233D0102B3ED06508A40844EA7D
:1051D400817445EAC1752D194FEA910242EB5102DF
:1051E400290941EA02716D1842EB1212290A41EAB7
:1051F40002616D1842EB1222290C41EA02416D183A
:1052040042EB1242AD1842F10002EC0844EA427447
:10521400D10804EB8402A6EB4205EDB2092D0CD9AA
:105224000134A5F10A0541F10001EDB212E0E408F0
:1052340044EA417406F00705C908303554EA01020E
:1052440000F8015BBCD1F0BD240944EA017406F006
:105254000F050909092D84BFED19EDB2EDE7D1E978
:10526400043293421EBF5A1C0A6118707047000032
:08527400B4AEFF7F0100000051
:10527C00000000000C530008D108000800000000DA
:10528C00000000002853000800000000985300089C
:10529C00000000007C53000800000000B45300081C
:1052AC0000000000D053000800000000605300080C
:1052BC000000000044530008614A00080000000090
:1052CC00000000000854000800000000EC53000827
:1052DC0000000000245400087D1F0008000000009E
:1052EC007925000800000000B90900080000000042
:1052FC00DD1B000800000000950400080000000001
:10530C00495F000800000000BC5500087400002034
:10531C00000000006D1E000800000000885F0008FF
:10532C005C570008AC550008760000200000000017
:10533C0000000000000000008959000864560008B5
:10534C00885500086800002000070020F5080008B8
:10535C00000000009759000878560008885500088E
:10536C006A00002010070020F5080008000000006B
:10537C00A55900088C560008885500086C000020C0
:10538C0020070020F508000800000000B3590008B1
:10539C00A0560008885500086E0000203007002039
:1053AC00F508000800000000C1590008B4560008B8
:1053BC00885500087000002040070020F508000800
:1053CC0000000000205F000800000000000000004A
:1053DC0072000020000000005D4A00080000000080
:1053EC001960000860570008D855000878000020A4
:1053FC002000002085230008000000002960000820
:10540C00A8570008D85500087A0000202C0000206E
:10541C00852300080000000039600008F0570008E0
:10542C00D85500087C000020380000208523000897
:04543C00000000006C
:1054400000000000FB49000800000000FB490008C4
:1054500000000000FB49000800000000FB490008B4
:1054600000000000FB49000800000000FB490008A4
:1054700069610008851C000867610008851C000838
:1054800065610008851C000863610008851C000830
:1054900061610008851C000800000000FB4900084D
:1054A00000000000FB49000800000000FB49000864
:1054B00000000000FB49000800000000FB49000854
:1054C00000000000FB49000800000000FB49000844
:1054D00000000000FB49000800000000FB49000834
:1054E00000000000FB49000800000000FB49000824
:1054F00000000000FB4900085F610008851C0008EF
:1055000000000000FB49000800000000FB49000803
:1055100000000000FB49000800000000FB490008F3
:1055200000000000FB49000800000000FB490008E3
:1055300000000000FB49000800000000FB490008D3
:1055400000000000FB49000800000000FB490008C3
:1055500000000000FB49000800000000FB490008B3
:1055600000000000FB49000800000000FB490008A3
:1055700000000000FB49000800000000FB49000893
:085580005D610008851C0008B4
:10558800792000083F4C00084B4C00085D4C00088F
:10559800674C0008714C0008CD1F00087F4C0008BC
:1055A80000000000234D0008434D00085F4D00082F
:1055B8007D4D0008334B0008774B000800000000C1
:1055C800F11D0008FF4B000800000000B94B00085F
:1055D800034E0008254E0008A54D00085524000874
:0455E8005B4E00080E
:1055EC006D590008030000003E5F00080300000036
:1055FC00FE59000803000000025A000803000000D6
:10560C00075B000803000000F159000803000000CC
:10561C0025610008030000007F580008030000000B
:10562C00435F000803000000E2590008030000007B
:10563C00CF590008030000007E5900080300000049
:08564C004960000803000000A2
:105654004057000808000020F65A00080100000026
:10566400FFFF0000001801400400000018000000C3
:1056740040000000FFFF0000001401400300000090
:105684001800000020000000FFFF0000001001408F
:10569400020000001800000010000000FFFF0000DE
:1056A400000C014001000000180000000800000088
:1056B400FFFF000000080140000000001800000087
:1056C40004000000B4530008985300087C530008F9
:1056D400605300084453000840010020000100000A
:1056E40061470008F746000802000000F748000878
:1056F40000000000000000000000000000000000A6
:10570400D65A0008DE5A000800000000000000001D
:1057140000000000E65A0008EA5A0008EE5A0008A1
:10572400F25A0008305700086C070020991300084B
:10573400840700206608002001000000B749000823
:10574400AD4900087B4900086F49000800000000CB
:1057540063490008000000000010024000480040B7
:105764000C53000828530008120200008857000850
:105774000100000000000000000000000000000024
:10578400905700081C00000000000400985700080F
:1057940001000000A057000802000000411332007D
:1057A40061093200004400400C53000828530008EB
:1057B40011020000D05700080100000000000000A2
:1057C4000000000000000000D85700081C00000082
:1057D40000000200E057000801000000E85700083C
:1057E400020000004092110060881100003801405E
:1057F4000C530008285300088E01000018580008B4
:105804000100000000000000000000000000000093
:105814002058000818000000004000002858000824
:10582400010000003058000802000000201311009D
:1058340040091100DB600008E9600008FD60000811
:105844000C610008186100087C5200087C520008B2
:10585400EC520008F4520008045300080C530008EA
:105864000010000000304F4E004F4646004C4544A7
:105874002073746174653A202573006F735F6865E3
:105884006170002A2A2A20426F6F74696E67205A59
:105894006570687972204F53206275696C64207654
:1058A400342E342E302D31303935332D6764613048
:1058B400373138636130643532202A2A2A0A0028B5
:1058C4006E756C6C290028756E7369676E65642942
:1058D4002063686172202A207573656420666F7284
:1058E4002025257020617267756D656E742E2049C0
:1058F400742773207265636F6D6D656E64656420D3
:10590400746F206361737420697420746F20766FE0
:105914006964202A20626563617573652069742057
:105924006D6179206361757365206D697362656863
:105934006176696F7220696E206365727461696E45
:1059440020636F6E66696775726174696F6E732E1A
:1059540020537472696E673A22257322206172673C
:10596400756D656E743A25640063627072696E7455
:10597400665F7061636B616765007379735F676508
:10598400746F7074006770696F403430303131382F
:105994003030006770696F4034303031313430302A
:1059A400006770696F403430303131303030006717
:1059B40070696F4034303031306330300067706963
:1059C4006F4034303031303830300073746D3332DE
:1059D4005F6770696F706F72745F6D677200737464
:1059E4006D33325F6261636B75705F646F6D6169A3
:1059F4006E006C6F6767696E67006C6F67006C6F31
:105A0400675F6D676D74004D65737361676520280A
:105A140022257322292064726F7070656420626588
:105A24006361757365206974206578636565647363
:105A34002073697A65206C696D69746174696F6E2D
:105A44002028257529004D6573736167652064728C
:105A54006F70706564206265636175736520697435
:105A640020657863656564732073697A65206C6961
:105A74006D69746174696F6E2028257529000D0A9B
:105A8400001B5B306D0025732E0025733A20002522
:105A94007320005B253031306C755D20005B253050
:105AA40032753A253032753A253032752E25303329
:105AB400752C253033755D20003C25733E20002570
